:0A02B200C0F9A4B0999282F8809080
:10028F00010C1E010D1901091E010A19010B1E0196
:02029F000E1E31
:1002A200758901758C3C758AB0D2AFD2A9D28C22E5
:03000B000202509E
:10025000C0E0C0D0758C3C758AB00508D3E5086451
:10026000809494400F150C150D1509150A150B15E2
:090270000E750800D0D0D0E03278
:08027900F583E493F5A07F0179
:0D028100EFD3940040077E6EDEFE1F80F379
:01028E00224D
:05020900EF3395E0FE5B
:10020E00AB07AA067580017C007D0AAF03AE021211
:10021E00012774B22DF58274023C120279E4F58046
:10022E0075A0FF758002AE02AF03FC7D0A12012796
:10023E0074B22FF58274023E120279E4F58075A035
:02024E00FF228D
:0501B200EF3395E0FEB3
:1001B700AB07AA067580047C007D0AAF03AE021266
:1001C700012774B22DF58274023CF583E493F5B0F0
:1001D7007F01120281E4F58075B0FF758008AE02D9
:1001E700AF03FC7D0A12012774B22FF58274023E19
:1001F700F583E493F5B07F01120281E4F58075B0D1
:02020700FF22D4
:10000E001202A2C292C293E50C6022FF12020AAF44
:10001E000D1201B2E50CB405EEE50960F7AF0C1256
:10002E000209AF091201B2D292C29180ECD293D2E0
:10003E0092D291750C1E750D1975091E750A1975DA
:10004E000B1E750E1E1202A2C290C295E50B602207
:10005E00FF1201B3AF0A120209E50BB405EEE50E6D
:10006E0060F7AF0B120209AF0E1201B2D295C29415
:10007E0080ECD290D295D294750C1E750D1975091F
:0D008E001E750A19750B1E750E1E02000E60
:0300000002009B60
:0C009B00787FE4F6D8FD75810E0200E2CB
:10012700C2D5EC30E709B2D5E4C39DFDE49CFCEEF3
:1001370030E715B2D5E4C39FFFE49EFE12015DC30D
:10014700E49DFDE49CFC800312015D30D507C3E408
:060157009FFFE49EFE2262
:1000A70002000EE493A3F8E493A34003F68001F261
:1000B70008DFF48029E493A3F85407240CC8C3335A
:1000C700C4540F4420C8834004F456800146F6DF29
:1000D700E4800B010204081020408090028FE47E28
:1000E700019360BCA3FF543F30E509541FFEE4931E
:1000F700A360010ECF54C025E060A840B8E493A3E5
:10010700FAE493A3F8E493A3C8C582C8CAC583CA0F
:10011700F0A3C8C582C8CAC583CADFE9DEE780BEC7
:0102A100005C
:10015D00BC000BBE0029EF8DF084FFADF022E4CC86
:10016D00F875F008EF2FFFEE33FEEC33FCEE9DEC4F
:10017D00984005FCEE9DFE0FD5F0E9E4CEFD22ED95
:10018D00F8F5F0EE8420D21CFEADF075F008EF2FDF
:10019D00FFED33FD4007985006D5F0F222C398FDD0
:0501AD000FD5F0EA226D
:00000001FF
